:020000040800F2
:10000000600B0020910100081D2B0008D122000880
:10001000192B000861050008ED2E00080000000003
:100020000000000000000000000000000D2C00088F
:100030006505000800000000212B0008E12C0008E5
:10004000AB010008AB010008AB010008AB010008E0
:10005000AB010008AB01000869050008AB0100080E
:10006000AB010008AB010008AB010008AB010008C0
:10007000AB010008AB010008AB010008AB010008B0
:10008000AB010008AB010008AB010008AB010008A0
:10009000AB010008AB010008AB010008AB01000890
:1000A000AB010008AB010008AB010008AB01000880
:1000B000AB010008AB010008AB010008AB01000870
:1000C000AB010008AB010008AB010008AB01000860
:1000D000AB010008AB010008AB010008AB01000850
:1000E000AB010008AB010008AB01000800F002F80A
:1000F00000F03FF80AA090E8000C82448344AAF183
:100100000107DA4501D100F034F8AFF2090EBAE880
:100110000F0013F0010F18BFFB1A43F0010318473B
:100120002434000044340000103A24BF78C878C159
:10013000FAD8520724BF30C830C144BF04680C60ED
:10014000704700000023002400250026103A28BF35
:1001500078C1FBD8520728BF30C148BF0B60704739
:10016000642900F07180002070471FB51FBD10B5D5
:1001700010BD00F0BAF91146FFF7F7FF02F0C8FF13
:1001800000F0D8F903B4FFF7F2FF03BC00F0E0F988
:100190000948804709480047FEE7FEE7FEE7FEE71B
:1001A000FEE7FEE7FEE7FEE7FEE7FEE70448054957
:1001B000054A064B70470000F92C0008ED000008C6
:1001C00060050020600B0020600700206007002011
:1001D0000FB41CB5074B06AA7B44694600900598EE
:1001E00000F06BF90020694600F07AF91CBC5DF85C
:1001F00014FB00000503000070B504468569006823
:10020000C10601D5302600E02026C00707D070BD0A
:10021000D4E9012130469047206A401C20626D1EBF
:10022000F6D570BD70B5044685690078C00707D162
:1002300070BDD4E9012120209047206A401C206233
:100240006D1EF6D570BD00002DE9F0410646002474
:1002500010687529314616A510D0AFF3008000282C
:1002600002DA404213A507E031688A0701D512A5DA
:1002700002E0490704D511A5012401E0AFF3008095
:1002800000210A2206F1240709E0B0FBF2FCB0FBD2
:10029000F2F302FB1C00303078541846491C002849
:1002A000F3D123462A463046BDE8F04100F0A7B816
:1002B000000000002D0000002B00000020000000C6
:1002C0002DE9F05F894604464FF0000ADFF824B1BB
:1002D000FB44C0F820A02046E168884700287DD074
:1002E000252806D0D4E901219047206A401C2062CD
:1002F000F1E700255F462046E1688847202806464A
:1003000007DB312E05D2B81910F8200C08B10543CF
:10031000F1E7A80701D525F00405C4F81CA00027C3
:10032000C4F818A02A2E09D0304603F0B4F838B328
:1003300004EB8708303EC8F8186019E059F8041B30
:10034000204604EB87029161E1688847012F064649
:1003500018D1E069002820DA25F020051DE0D8F842
:10036000180000EB800006EB40003038C8F8180099
:100370002046E1688847064603F08DF80028EED154
:10038000012F0AD02E2E08D12046E16888477F1C15
:100390000646022F45F02005C4DBA069002803DAD9
:1003A000404245F00105A061E80701D025F01005A5
:1003B000A6B1A6F14100192802D8203645F40065FF
:1003C0004A463146204625604D46FFF7C9FE60B1DA
:1003D000012807D0ED1D25F0070000E007E000F13F
:1003E000080978E705F1040975E730467AE7206ADD
:1003F000BDE8F09FD03100007047704770472DE98D
:10040000F0470D4699469246044600F124080168DB
:10041000880604D5E06921F01001216000E0012088
:10042000A84201DD471B00E00027A1697A1902EB11
:100430000900081AA0612078C00602D42046FFF700
:10044000DBFE002608E0D4E901211AF806009047F7
:10045000206A401C761C20624E45F4DB2078C006E2
:100460000AD52046FFF7C8FE06E0D4E90121302076
:100470009047206A401C2062381EA7F10107F4DC77
:1004800007E0D4E9012118F805009047206A401CD4
:100490002062281EA5F10105F3DC2046FFF7C2FE0D
:1004A0002078000602D50220BDE8F0870120FBE796
:1004B00001694A1C02610878704700B58FB0CDE928
:1004C00001310021059105497944CDE90310114618
:1004D0006846FFF7F5FE0FB000BD0000E5FFFFFF27
:1004E0000A6802F8010B0A607047754600F02CF8A4
:1004F000AE4605006946534620F00700854618B011
:1005000020B5FFF753FEBDE820404FF000064FF046
:1005100000074FF000084FF0000BAC46ACE8C009F4
:10052000ACE8C009ACE8C009ACE8C00921F007019B
:100530008D46704710B50446AFF300802046BDE8F5
:100540001040FFF71FBE0000004870471800002051
:1005500001491820ABBEFEE72600020070470000EC
:10056000FEE7000070470000012000F027BA0000FD
:1005700070B542F20C060446C4F2020600F03EFBDF
:100580003168C90718D13068800644BF2020306028
:100590003068C00607D43069C00704D1306840070E
:1005A0005CBF002070BD3068C00623D400203168D5
:1005B00049072BD434E000BF002C47D00546601C0F
:1005C0000ED13068C007DED03068C0071CBF30686D
:1005D0005FEAC070D7D03068C007F2D1D3E700BF60
:1005E00000F00CFB401BA04230D83068C007F7D1A8
:1005F000C9E700BF40F23850C2F20000C16941F0C3
:100600000201C16110203168490709D540F2385113
:10061000C2F20001CA6940F0040042F00102CA615E
:100620003169C90702D13060012070BD40F23851F4
:10063000C2F20001CA6942F00402CA61316921F0C4
:10064000010131613060012070BD00BF032070BD29
:1006500010B586B0044600F091F901200590CDE96F
:1006600003040020029002A801A900F0AFF800F0F6
:1006700025F906B010BD000002880A8042884A8031
:1006800082888A80C088C88070470000B0B50C4658
:10069000054600F073F9228801202946002300F066
:1006A00017F96288A91C0120002300F011F9A28823
:1006B000291D0120002300F00BF9E288A91D01206B
:1006C000002300F005F9BDE8B04000F0F7B80000E5
:1006D0002DE9F04F85B00E46074607200DF10D01BC
:1006E000CDE9001040F2E0409B461546DDF8408021
:1006F000DDE90EA94FF47A7CC2F20000D02100227D
:100700000123CDF808C000F077FD9DF80D009DF89D
:100710000E10040904EB840400F00F0000EB440009
:10072000387008099DF80F2000EB800001F00F01E0
:1007300001EB4000307010099DF8103000EB800094
:1007400002F00F0101EB40002870180900EB800057
:1007500003F00F0101EB40009DF811108BF8000031
:10076000080900EB800001F00F0101EB40009DF84B
:1007700012108AF80000080900EB800001F00F0158
:1007800001EB40009DF8131089F80000080900EB08
:10079000800001F00F0101EB400088F8000005B077
:1007A000BDE8F08FB0B5044600F028FA054640F2E7
:1007B0000800C2F200000078611C18BF044400BFAA
:1007C00000F01CFA401BA042FAD3B0BD2DE9F04363
:1007D00081B040F23856C2F20006327E012A03D1BF
:1007E000022001B0BDE8F083054601202C68307678
:1007F0004CF250308846FFF7BBFE022C1CD100287B
:100800004ED1002042F21004F061C4F202042068CC
:1008100040F004002060206840F0400020604CF26E
:100820005030FFF7A5FE216821F00401216000216E
:10083000317601B0BDE8F08390BB4FF0FF30C8F8CF
:100840000000D5E9027007EB8020874228D242F2EF
:100850001004C4F202044FF0000900BFC6F81C9057
:10086000206840F0020020606760206840F040008F
:1008700020604CF25030FFF77BFE216821F002012E
:10088000216098B9D5E9020107F5806700EB812066
:100890008742E3D300200021317601B0BDE8F08328
:1008A00001200021317601B0BDE8F083C8F8007066
:1008B0000021317601B0BDE8F083000042F2100162
:1008C000C4F20201086840F0800200200A6070470C
:1008D0002DE9F04F81B040F23859C2F2000992463A
:1008E00099F81820012A03D1022001B0BDE8F08F49
:1008F0008046012089F818004CF250309B460E4685
:10090000FFF736FEA0BB404642F21007B8F1020FD7
:1009100018BF0420C4F20207B8F1010F08BF404617
:1009200045424FF000080024C4F12001C9F81C80A2
:100930002AFA04F00BFA01F13A680843B4F12001F5
:1009400058BF2BFA01F042F00101396026F8020B82
:100950004CF25030FFF70CFE3968013521F00102EE
:1009600048F100013A6018B9002904F11004DBD005
:10097000002189F8181001B0BDE8F08F42F20400A0
:10098000C4F20200C16809065CBF0020704740F253
:100990002311C4F26751016048F6AB11CCF6EF5158
:1009A0000160C068C0B2C0097047000040F200009A
:1009B000C2F20000002101607047000040F21441C3
:1009C000C4F201010A68024214BF08607047FFF7D1
:1009D000EDBF00002DE9F04F82B00E68002E00F050
:1009E000038140F20C4C41F200424FF6FF7EC4F20C
:1009F000010CC4F20102042700240123C1F2100EED
:100A00004FF0000A4FF00009904208BF03270097FB
:100A100045E000BF012704F00C030F229A402BEAA7
:100A2000020207FA03F34FEA9A051A4346F8252013
:100A3000D1F804B040F20045C4F201055FEACB32C0
:100A40002A6854BF22EA080242EA08022A606A6859
:100A50005FEA8B3354BF22EA080242EA08026A6066
:100A60005FEACB23AA6854BF22EA080242EA0802DE
:100A70005FEA8B23AA60DCF800204FF0010354BF2B
:100A800022EA080242EA0802CCF800200E680AF1C5
:100A9000010A36FA0AF204F1040400F0A58003FA10
:100AA0000AF816EA080FF1D04E68764512DC122ECD
:100AB00056D8DFE806F0350B45495555555555557F
:100AC000555555555555554D510000BFD1F80C9011
:100AD00046E000BF4FF6FF72C1F2210296420FDCE2
:100AE0000022C1F2110296421AD00022C1F2120273
:100AF000964215D00022C1F22102964210D02FE07A
:100B00000022C1F2220296420AD00022C1F2310232
:100B1000964205D00022C1F23202964220D100BF97
:100B20008A684AB1012A14BFC0F81480C0F8108046
:100B30004FF0080914E000BF4FF0040910E000BFB7
:100B4000CA6802F108090BE04FF0000908E000BF95
:100B5000CA6802F1040903E0CA6802F10C0900BF87
:100B600022460646BAF1080F24BF203A04363768F9
:100B70000F25954027EA050509FA02F22A4332605B
:100B8000CA79D2067FF582AF41F21803C4F202039C
:100B90001A6842F001021A601A6802F0010201921A
:100BA000019A40F20042C4F20102A2F57E762AF0D8
:100BB000030256F802B040F60002C4F2010290426D
:100BC00010D040F60042C4F2010290423FF422AF3E
:100BD00041F20002C4F20102009F904208BF0227C6
:100BE00019E700BF002716E702B0BDE8F08F00004C
:100BF0008068084018BF01207047000040F25C5038
:100C0000C2F200000068704770B5B8B3044690F8AF
:100C10003D0028B9002084F83C00204600F0F6FD95
:100C2000242084F83D002068016821F00101016062
:100C3000016841F400410160016821F40041016054
:100C400000F0AEFF48F28041C0F21E0140F60013F2
:100C5000D4F804E088424FF00001C0F23D0348F2AE
:100C6000A16C4FF0000238BF01219842C0F2010C84
:100C700038BF0122E64538BF0A460AB1012070BDDF
:100C80004DF68361C4F21B31A0FB01122168950C63
:100C90004B684FF4967623F03F0343EA9243754343
:100CA00044F6D3564B60C1F262060B6AA5FB0656AA
:100CB000B50923F03F03E64538BF950C6A1C1A437B
:100CC0000A62CA6948F2A0664CF6FF73C0F20106D8
:100CD000B64522EA03020BD801384FEA4E03B0FBB7
:100CE000F3F001306FF31F30042898BF04201EE09A
:100CF000A368013863B119230EFB03F3B0FBF3F0D3
:100D000001306FF31F3078B100F5804008E000BF7C
:100D10000EEB4E03B0FBF3F001306FF31F3028B140
:100D200000F5004003E000BF012000E00120104377
:100D3000C8610868D4E9072320F0C00010431843B5
:100D40000860886848F2FF3204F10C0690434CCEEC
:100D500018431043A5698860C86820F0FF0030433D
:100D60002843C860086840F0010008600020202186
:100D7000206484F83D10206384F83E0070BD0000BC
:100D80002DE9F04381B01F46164688460446FFF71A
:100D900035FF94F83D10202920D10546206881694F
:100DA000890717D5FFF72AFF401B1928F6D900201D
:100DB0002021206384F83D1084F83E00216C022637
:100DC00041F02001216484F83C00304601B0BDE8C8
:100DD000F08300BF94F83C10012905D1022630466B
:100DE00001B0BDE8F08300BF012184F83C10016828
:100DF000C90703D1016841F001010160016821F4D4
:100E000000610160212184F83D10102184F83E101A
:100E10000021216466626785618D21850021CFF6FE
:100E2000FF71E162E16A11F5803F18BF012919D114
:100E3000016841F4807101604169DDF82090C907C3
:100E400023D119F1010116D0B9F1000F46D000BF2E
:100E5000FFF7D4FE401B484542D820684169C907C6
:100E6000F6D012E00829E3D0216B1229E0D0E3E7A5
:100E70004169C90709D14169C90706D14169C90753
:100E800004BF41695FEAC171F2D02169B1F5804FB9
:100E900002D1FE2161E000BF062101EAD811F03144
:100EA00001614169090757D4416919F1010201F44F
:100EB00080612FD0002946D1B9F1000F00F04281A6
:100EC000FFF79CFE401B484500F23E8120684169C7
:100ED000090741D441694905F2D534E0FFF78EFE98
:100EE00000202021206384F83D1084F83E00216C0E
:100EF000012641F020012164216884F83C00086843
:100F0000C00544BF4FF400702064304601B0BDE816
:100F1000F08300BFB9B9416909071DD4416949058A
:100F200011D44169090717D4416949050BD44169B6
:100F3000090711D44169490505D4416909070BD452
:100F400041694905E7D5016841F4007101606FF41A
:100F5000806141610420F8E0FF2101EA080101619C
:100F6000416989073AD4416919F1010201F48061AC
:100F700012D051BBB9F1000F00F0E080FFF73EFE48
:100F8000401B484500F2DC8020684169890725D470
:100F900041694905F2D518E0B9B9416989071DD4FD
:100FA0004169490511D44169890717D44169490547
:100FB0000BD44169890711D44169490505D44169B8
:100FC00089070BD441694905E7D5016841F40071EF
:100FD00001606FF4806141610420B6E00026009654
:100FE00041690091816900910099218D002900F0EB
:100FF000958009F10108014651F8142F120635D4E5
:10100000B8F1000F16D0B9F1000F00F0AF8000BFAB
:101010000868400500F1B280FFF7F0FD401B48452D
:1010200000F2A9802068014651F8142F1206EFD56E
:101030001CE000BF0A68520500F1A0800A68120691
:1010400014D40A68520500F199800A6812060DD47A
:101050000A68520500F192800A68120606D40A68EE
:10106000520500F18B800A681206E3D5636A1946BF
:1010700011F8012B02616162618D01396185278D53
:101080000146A7F1010CA4F828C051F8142F52070B
:101090000DD55FEA0C420AD05A78A7F1020C026122
:1010A0009A1C6262628D013A6285A4F828C00A68BF
:1010B00052072FD4B8F1000F14D0B9F1000F7BD034
:1010C0000868400500F18080FFF798FD401B484507
:1010D00077D82068014651F8142F5207F0D5B4F89C
:1010E00028C017E00A6852056ED40A68520711D466
:1010F0000A68520568D40A6852070BD40A68520578
:1011000062D40A68520705D40A6852055CD40A689A
:101110005207E7D55FEA0C417FF46DAF016841F4F7
:1011200000710160202084F83D0084F83E6084F85E
:101130003C60304601B0BDE8F08300BFFFF75EFDC4
:10114000202002E0FFF75AFD202000212022216309
:1011500084F83D2084F83E10226C01261043206460
:1011600084F83C10304601B0BDE8F08308684005C3
:1011700004D4FFF743FD202004E000BF6FF480603B
:101180000860042000212022216384F83D2084F897
:101190003E10226C1043206484F83C10206C04281C
:1011A00025D120680126016841F4007101603046B4
:1011B00001B0BDE8F08300BF0868400504D4FFF724
:1011C0001DFD202004E000BF6FF480600860042053
:1011D00000212022216384F83D2084F83E10226CF7
:1011E0001043206484F83C10206C0428D9D00126D8
:1011F000304601B0BDE8F0832DE9F04F85B00446DC
:1012000000201E4617460D460490FFF7F7FC94F8A1
:101210003D10202923D1804620688169890719D58E
:10122000FFF7ECFCA0EB08001928F5D900202021DD
:10123000206384F83D1084F83E00206C04F13C09E2
:1012400040F0200020640220002189F8001005B041
:10125000BDE8F08FA14619F83C1F012904D10220F6
:1012600005B0BDE8F08F00BF012289F800200368B7
:10127000DDE90F1A0E9ADB0703D1036843F001037F
:101280000360036823F400630360222084F83D00B8
:10129000402084F83E000020206462626185608DF9
:1012A000294620850020CFF6FF70E06220463A46AE
:1012B0003346CDF800A0CDF8048001F00BF818B14A
:1012C000012005B0BDE8F08F208D022810D0012844
:1012D00024D0002838D10020039020684169039170
:1012E000816903910399016841F40071016037E05D
:1012F0002068016841F400610160EFF3108072B66C
:10130000002003902068416903918169039103994A
:10131000016821F48061016062B621E02068016803
:1013200021F480610160EFF3108072B60020039019
:10133000206841690391816903910399016841F42F
:101340000071016062B60BE02068016841F48061C1
:101350000160002103914169039180690390039822
:10136000208D002800F0238140F2100B4BF28957AA
:101370000AF10105C2F2000BC1F2F847232680B240
:10138000032819D8022845D001286FD1BAF1000FDF
:1013900000F0FA802068014651F8142F520600F13F
:1013A000F7800868C00600F12F81FFF727FCA0EB4B
:1013B00008005045EED91CE1BAF1000F12D000BF71
:1013C0002068014651F8142F520610D40868C00650
:1013D00000F11A81FFF712FCA0EB08005045EFD98D
:1013E00007E100BF20684169490640F1FB800069C0
:1013F000616A0870606A2268411C208D6162013850
:101400002085638D013B638553695B0740F1CC8088
:101410001069BFE020684169490711D4002D00F030
:101420009380BAF1000F00F0E280FFF7E7FBA0EB3A
:101430000800504500F2DD80206840694007F4D57F
:10144000EFF3108072B62068616A026842F400729D
:10145000026000690870606A218D01306062481E78
:101460002085608D0138608562B668E0206841693A
:10147000490710D4002D77D0BAF1000F00F0B780E3
:10148000FFF7BCFBA0EB0800504500F2B2802068DB
:1014900041694907F4D5016821F480610160EFF3E7
:1014A000108072B62068616A00690870606A218DD8
:1014B0000130013960622185618D01396185DBF878
:1014C0000010C908A1FB0712110A71430491049985
:1014D000013904910499002976D021684A6952079C
:1014E0001DD4049901390491049900296CD0216814
:1014F0004A69520713D404990139049104990029C7
:1015000062D021684A69520709D4049901390491CB
:101510000499002958D021684A695207D7D50A682A
:1015200042F400720A6009690170606A218D01301D
:101530006062481E2085608D0138608562B6206833
:10154000616A006926E000BF416949073FF578AF4D
:10155000416949075CBF41695FEA41713FF570AF7E
:1015600041694907F0D56BE74169490793D441695F
:1015700049075CBF41695FEA41713FF58CAF416942
:101580004907F1D587E700BF20684169490629D599
:101590000069616A0870606A218D01306062481ECE
:1015A0002085618D0139618501047FF4E8AE20203A
:1015B00084F83D00002084F83E00002189F80010E6
:1015C00005B0BDE8F08F00BF00202021206384F823
:1015D0003D1084F83E00206C40F02000206462B68C
:1015E0001EE000BF50F8141FC90601460CD4FFF7D7
:1015F00005FB00202021206384F83D1084F83E0084
:10160000206C40F020000AE06FF01000086000201D
:101610002021206384F83D1084F83E00206C206473
:101620000120002189F8001005B0BDE8F08F00000E
:101630002DE9F04383B0994616460F460446FFF75E
:10164000DDFA94F83D1020291CD1054620688169F7
:10165000890713D5FFF7D2FA401B1928F6D90020C5
:101660002021206384F83D1084F83E00216C41F075
:101670002001216484F83C0004E000BF94F83C1091
:10168000012903D1022003B0BDE8F083012284F8D0
:101690003C200368DDE90B180A9ADB0703D10368D5
:1016A00043F001030360036823F400630360212017
:1016B00084F83D00402084F83E00002020646262EF
:1016C0006185608D394620850020CFF6FF70E0628D
:1016D000204632464B46CDF80080019500F08AFF47
:1016E00020B1012003B0BDE8F08300BF208D0028A9
:1016F00050D0206808F10106014651F8142F120657
:101700002CD49EB1B8F1000F5AD000BF0868400534
:101710005ED4FFF773FA401B404556D82068014657
:1017200051F8142F1206F1D518E000BF0A685205CF
:101730004ED40A68120611D40A68520548D40A68C1
:1017400012060BD40A68520542D40A68120605D460
:101750000A6852053CD40A681206E7D5626A114647
:1017600011F8013B0361238D6162591E2185678D4C
:10177000013F678547697F070AD50F0408D0517874
:101780000161911C6162991E2185628D013A628519
:101790000904B1D1204641462A4601F065F838BB1C
:1017A0002068016841F400710160202084F83D0048
:1017B000002084F83E0084F83C0003B0BDE8F083CC
:1017C0000868400504D4FFF719FA202004E000BFA0
:1017D0006FF480600860042000212022216384F8D7
:1017E0003D2084F83E10226C1043206484F83C10A5
:1017F000206C04287FF475AF2068016841F4007103
:101800000160012003B0BDE8F083000010B586B090
:1018100045F200410068C4F20001002288420492AF
:1018200002D006B010BD00BF41F21804C4F2020499
:10183000206840F008002060206800F00800019057
:101840000198C0200290122003900320059001F51A
:10185000384002A9FFF7BEF8606840F400106060ED
:10186000606800F400100190019806B010BD0000FF
:1018700040F2080040F25C51C2F20000C2F20001E6
:1018800000780A68104408607047000080B542F292
:101890000000C4F20200016841F010010160032061
:1018A00000F08EF8002000F005F800F027F8002086
:1018B00080BD000070B540F20806C2F2000640F29A
:1018C00010013278C2F200014FF47A730968B3FB59
:1018D000F2F20446B1FBF2F1084600F063FB0F2C74
:1018E0004FF0010508D838B94FF0FF3021460022EB
:1018F000002500F039F87460284670BD82B041F2CE
:101900001800C4F202000168022241F001010160E6
:10191000016801F0010101910199416841F0805194
:101920004160406800F08050009000980420C4F2AC
:101930000100016862F31A61016002B070470000A3
:10194000002848BF7047C1B200F01F00012202FA10
:1019500000F04EF20012CEF2000242EAD10121F074
:10196000030108607047000010B54EF60C5CCEF223
:10197000000CDCF80030C3F3022E8EF00704042CB8
:1019800028BF0424BEF103034FF0FF3E0EFA04F417
:1019900038BF0023A14399400EFA03F39A43114341
:1019A00000F00F0200F160430901043A03F56443BB
:1019B0006244002848BF02F10C03197010BD0000FA
:1019C0004EF60C51CEF200010A684FF6FF031A40A2
:1019D00060F30A2242F0806040F0FD7008607047BA
:1019E0002DE9F04381B0002800F0858042F2000824
:1019F000C4F202080446D8F800000D4600F00700C3
:101A000088420CD2D8F8000020F007002843C8F81C
:101A10000000D8F8000000F00700A8426BD1206851
:101A200041F204098107C4F2020917D5410705D51F
:101A3000D9F8001041F4E061C9F80010010705D59C
:101A4000D9F8001041F46051C9F80010D9F800101D
:101A5000A26821F0F0011143C9F80010C00741D17C
:101A6000D8F8000000F00700A8420CD9D8F8000010
:101A700020F007002843C8F80000D8F8000000F064
:101A80000700A84237D12068410707D5D9F80010D0
:101A9000E26821F4E0611143C9F80010000708D59D
:101AA000D9F80000216920F4605040EAC100C9F86B
:101AB0000000D9F8002002F00C00082841F20020B4
:101AC000C0F27A0050D143F2CF43C2F38341C0F653
:101AD0000003595CD2033BD440F60010C0F23D0035
:101AE000484341E0606802280AD001282AD159F809
:101AF000041C890308D4012001B0BDE8F08300BFB5
:101B000059F8041C8901F6D5D9F8001021F0030119
:101B10000843C9F80000FFF771F8064641F288371C
:101B2000D9F80000616800F00C00B0EB810F97D08D
:101B3000FFF764F8801BB842F2D9032001B0BDE87A
:101B4000F08300BF59F8041C8907D4D5DCE700BF37
:101B5000D9F8002043F2B543C2F34042C0F6000377
:101B60009A5C4843B0FBF2F0D9F8001043F2B74258
:101B7000C1F30311C0F60002515C40F2100220FADA
:101B800001F140F20C00C2F200000068C2F2000253
:101B90001160FFF78FFE002001B0BDE8F083000068
:101BA00040F2100041F20401C2F20000C4F202014E
:101BB0000068096843F2C742C1F30221C0F600027F
:101BC000515CC8407047000040F2100041F204012F
:101BD000C2F20000C4F202010068096843F2C74281
:101BE000C1F3C221C0F60002515CC840704700003A
:101BF0002DE9F04182B0002868D00446007841F217
:101C00000006C007C4F2020625D0706800F00C0080
:101C100004281BD0706800F00C00082802D17068FE
:101C2000C00313D46068002800F06881B0F5A02FCD
:101C300000F07C81B0F5803F00F07C81306820F4BA
:101C400080303060306820F4802076E13068800396
:101C500001D56068D0B32078800718D5706810F07F
:101C60000C0F07D0706800F00C0008286ED1706867
:101C7000C0036BD43068800702D52069012825D1C4
:101C80003068616920F0F80040EAC10030602078D7
:101C900000071FD42078400732D4E56995B17068F9
:101CA00000F00C00082840F08F80012D0ED07068E5
:101CB000216A00F480328A4208D1616A00F470100F
:101CC000884203D1002002B0BDE8F081012002B0BB
:101CD000BDE8F081A069002862D00020C4F2422053
:101CE0000121C0F88014FEF789FF0546706A80075D
:101CF00000F18C80FEF782FF401B0228F6D92AE112
:101D0000F06910F0805808D1F06940F08050F0611F
:101D1000F06900F080500090009847F20007C4F28C
:101D200000073868C00529D4386840F480703860EE
:101D3000FEF764FF054600BF3868C0051ED4FEF7F5
:101D40005DFF401B6428F7D905E100BF206900282A
:101D500040F20000C4F2422000F0828001210160C4
:101D6000FEF74CFF054600BF306880073FF588AF9F
:101D7000FEF744FF401B0228F6D9ECE0E06800289B
:101D800000F08080052800F09780012800F09880FE
:101D9000306A20F001003062306A20F0040092E0E6
:101DA0000020C4F242200021C0F88014FEF726FF74
:101DB000054600BF706A80077FF56CAFFEF71EFF17
:101DC000401B0228F6D9C6E00027C4F242270020B3
:101DD0003866FEF713FF022D05460BD130688001EF
:101DE00040F1BE80FEF70AFF401B02284FF00300BF
:101DF000F4D968E7306880017FF564AFFEF7FEFE36
:101E0000401B02284FF00300F4D95CE740F21000B9
:101E1000C2F20000006844F6D351C1F26201A0FB97
:101E20000101480A019000BF00BF0198411E00282F
:101E300001913FF42FAF00BF0198411E002801918E
:101E40003FF428AF00BF0198411E002801913FF4E4
:101E500021AF00BF0198411E00280191E4D119E78C
:101E600000210160FEF7CAFE054600BF306880070A
:101E70007FF50DAFFEF7C2FE401B02284FF00300B6
:101E8000F4D920E7306A20F001003062306A20F097
:101E900004003062FEF7B2FE054641F2883700BF0B
:101EA000306A800720D5FEF7A9FE401BB8424FF0EC
:101EB0000300F5D907E700BF306A40F00400306244
:101EC000306A40F001003062FEF798FE054641F2AC
:101ED000883700BF306A800706D4FEF78FFE401BAC
:101EE000B842F7D937E000BFB8F1000F7FF4D5AEA4
:101EF000F06920F08050F061CFE600BF306820F438
:101F000080303060306820F480203060FEF776FE4C
:101F1000054600BF306880037FF59DAEFEF76EFE7C
:101F2000401B64284FF00300F4D9CCE6306840F43D
:101F300080203060306840F480303060FEF75EFE14
:101F4000054600BF306880033FF585AEFEF756FEBC
:101F5000401B6428F6D9032002B0BDE8F08100BF21
:101F6000206AB0F5803F05D17168A26821F4003184
:101F7000114371607168626A21F47411114308435E
:101F8000706001203866FEF739FE04463068800133
:101F90003FF598AEFEF732FE001B02284FF003001B
:101FA000F4D990E6411E0020B0EB116F1CBF012058
:101FB00070474EF21002CEF2000251604EF62351ED
:101FC000CEF20001F0230B70072190601160704782
:101FD000002804BF0120704710B5044690F83D006A
:101FE00028B9002084F83C00204600F061F8242045
:101FF00084F83D002068D4E90212C36823F400533A
:10200000C360036923F440531A430261D4E90423F3
:102010001143C268194341F20C639A431143C160F2
:102020004169A26921F44071114343F60002C4F2F0
:1020300001029042416103D0FFF7B2FD02E000BF10
:10204000FFF7C2FD6268192148439100B0FBF1F02F
:1020500048F21F51C5F2EB11A0FB01235A094FF6BC
:102060009C73C0F6FF7302FB0300322303EB0010E6
:10207000A0FB0101F02303EA5113206803EB0212D5
:10208000C1F3431111448160016921F49041016160
:10209000416921F02A014161C16841F40051C160E8
:1020A00000202021206484F83D1084F83E1010BDEB
:1020B00070B586B040F60004C4F20104006804F56F
:1020C000405100268842049602D006B070BD00BF81
:1020D00041F21800C4F20200016802AD41F48041EF
:1020E0000160016801F4804101910199016841F0AA
:1020F000040101600068294600F004000190019885
:102100004FF40070029002200390032005902046B7
:10211000FEF760FC4FF48060CDE9020620462946B8
:102120000496FEF757FC06B070BD00002DE9F041A3
:10213000044690F83D0020280ED10D4600294FF0AE
:10214000010000F08E801646002A08BFBDE8F0812D
:1021500094F83C00012803D10220BDE8F08100BFC3
:10216000012084F83C00002020642120984684F857
:102170003D00FEF743FDA684E684A1680646B1F55E
:10218000805F03D12069002800F0A0802F46002541
:10219000002084F83C00E08CE0B118F101001BD075
:1021A000B8F1000F60D120680BE000BF35F8021BCA
:1021B00000276FF35F214160E18C0139E184E18CFC
:1021C00051B3016809066DD5002FEFD017F8011B38
:1021D000F1E700BF20681FE0206802E001680906FF
:1021E00009D40168090606D4016809065CBF0168C4
:1021F0005FEA0161F2D51FB117F8011B05E000BFCE
:1022000035F8021B00276FF35F214160E18C013933
:10221000E184E18C0029E4D1016849061DD4B8F1BC
:10222000000F3FD018F101010ED10168490614D406
:10223000016849065CBF01685FEA41610DD401682D
:102240004906F2D509E000BFFEF7D8FC811B2068E3
:10225000414527D800684006F6D5202084F83D0087
:102260000020BDE8F08100BF206800BF01680906BA
:1022700006D4FEF7C3FC811B20684145F6D911E066
:1022800017B117F8011B04E035F8021B00276FF3A4
:102290005F214160E18C0139E184E18C0029E5D1C5
:1022A000BAE700BFC16821F4D071C160416921F073
:1022B00001014161202084F83D0084F83E000020A7
:1022C00084F83C000320BDE8F08100BF00275FE7F1
:1022D000FEE700002DE9F04383B00446006899460C
:1022E0000368904643F48062026002680B9D42F4EA
:1022F0008072026042690A9ED2070F461DD1711C8E
:1023000011D0002E00F03681FEF778FC401BB04261
:1023100000F2328120684169C907F5D00DE000BFA5
:102320004169C90709D14169C90706D14169C9078E
:1023300004BF41695FEAC171F2D007F0FE0707618F
:102340004169890738D44169721C01F4806111D058
:1023500049BB002E00F03A81FEF750FC401BB04212
:1023600000F2368120684169890725D44169490511
:10237000F2D518E0B9B9416989071DD44169490509
:1023800011D44169890717D4416949050BD44169C2
:10239000890711D44169490505D4416989070BD4DE
:1023A00041694905E7D5016841F4007101606FF4A6
:1023B0008061416104200CE100210291014651F845
:1023C000142F02924A680292029A0A68120620D4D6
:1023D000002E00F0AB80721C51D10A68520500F14A
:1023E000AD800A68120614D40A68520500F1A6806E
:1023F0000A6812060DD40A68520500F19F800A6827
:10240000120606D40A68520500F198800A6812067E
:10241000E3D5B9F1010F45D04FEA1821016101461A
:1024200051F8142F12063DD4002E00F07F80721C4C
:102430002AD10A68520500F181800A68120631D457
:102440000A6852057AD40A6812062BD40A68520523
:1024500074D40A68120625D40A6852056ED40A6834
:102460001206E6D51EE000BFFEF7C8FB401BB042D7
:1024700061D82068014651F8142F1206C9D40868A3
:102480004005F1D55AE000BF0868400556D4FEF774
:10249000B5FB401BB0424ED82068014651F8142FBE
:1024A0001206F1D55FFA88F10161014651F8142F47
:1024B00012061AD4D6B3721C33D10A6852053DD421
:1024C0000A68120611D40A68520537D40A6812063F
:1024D0000BD40A68520531D40A68120605D40A687A
:1024E00052052BD40A681206E7D50168002241F490
:1024F0008071016020464FF001113346009500F0D5
:1025000007FA002850D02068006844E0FEF776FB08
:10251000401BB0420FD82068014651F8142F120614
:10252000E3D408684005F1D508E000BF086840051D
:1025300004D4FEF763FB202004E000BF6FF480604A
:102540000860042000212022216384F83D2084F8C3
:102550003E10226C1043206484F83C10206C042848
:1025600043D12068016841F400710160012003B08B
:10257000BDE8F083FEF742FB00202021206384F8B1
:102580003D1084F83E00216C41F020012164216857
:1025900084F83C000868C00544BF4FF40070206414
:1025A000032003B0BDE8F083206847F0010101611A
:1025B0000221C0F20101204632462B4600F050FABB
:1025C000002818BF012003B0BDE8F083FEF716FB1A
:1025D000202000212022216384F83D2084F83E1031
:1025E000226C1043206484F83C10012003B0BDE845
:1025F000F08300002DE9F04381B004460068904666
:102600000268099D42F4807202604269089E994600
:10261000D2070F461DD1711C11D0002E00F0D280C0
:10262000FEF7ECFA401BB04200F2CE802068416910
:10263000C907F5D00DE000BF4169C90709D141695B
:10264000C90706D14169C90704BF41695FEAC17181
:10265000F2D007F0FE0101614169890738D4416970
:10266000721C01F4806111D049BB002E00F0E8809B
:10267000FEF7C4FA401BB04200F2E48020684169D2
:10268000890725D441694905F2D518E0B9B94169EE
:1026900089071DD44169490511D44169890717D4B7
:1026A000416949050BD44169890711D4416949053C
:1026B00005D4416989070BD441694905E7D501680B
:1026C00041F4007101606FF4806141610420BAE05F
:1026D00000210091014651F8142F00924A6800929F
:1026E000009A0A6812061ED4002E00F08580721C23
:1026F0004DD10A68520500F187800A68120612D48B
:102700000A68520500F180800A6812060BD40A6834
:10271000520579D40A68120605D40A68520573D4A2
:102720000A681206E5D5B9F1010F43D04FEA182126
:102730000161014651F8142F12063BD4002E5BD0E4
:10274000721C29D10A6852055ED40A68120631D477
:102750000A68520558D40A6812062BD40A68520532
:1027600052D40A68120625D40A6852054CD40A6865
:102770001206E7D51EE000BFFEF740FA401BB0424C
:102780003FD82068014651F8142F1206CBD40868B0
:102790004005F1D538E000BF0868400534D4FEF7A5
:1027A0002DFA401BB0422CD82068014651F8142F56
:1027B0001206F1D55FFA88F10161002001B0BDE891
:1027C000F08300BFFEF71AFA00202021206384F86E
:1027D0003D1084F83E00216C41F020012164216805
:1027E00084F83C000868C00544BF4FF400702064C2
:1027F000032001B0BDE8F0830868400504D4FEF76B
:10280000FDF9202004E000BF6FF480600860042020
:1028100000212022216384F83D2084F83E10226CA0
:102820001043206484F83C10206C042817D12068E1
:10283000016841F400710160012001B0BDE8F0833E
:10284000FEF7DCF9202000212022216384F83D20BE
:1028500084F83E10226C1043206484F83C10012060
:1028600001B0BDE8F083000070B50368044653F87A
:10287000140F400737D40E46F1B1701C24D100BFAD
:102880001868400532D4186840072CD418684005F1
:102890002CD41868400726D41868400526D4186838
:1028A000400720D41868400520D4186840074FF02E
:1028B000000048BF70BDE3E71868400516D4FEF776
:1028C0009DF9202016E000BF154600BF186840059E
:1028D0000CD4FEF793F9401BB042F2D8236853F8AA
:1028E000140F4007F2D5002070BD00BF6FF4806068
:1028F0001860042000212022216384F83D2084F800
:102900003E10226C10432064012084F83C1070BDFE
:102910002DE9F04105461446DDF8188001F47F00EA
:102920002A681E46B0F5803F8FB241D150693840C9
:10293000C01BB0FA80F04009A0427BD1701C2DD0A2
:10294000002E7BD0FEF75AF9A0EB0800B04277D8F2
:10295000286840693840C01BB0FA80F04009A042A6
:10296000F0D00020BDE8F08150693840C01BB0FABB
:1029700080F04009A0425DD150693840C01BB0FAD8
:1029800080F04009A04255D150693840C01BB0FAD0
:1029900080F04009A0424FF000005FD150693840FC
:1029A000C01BB0FA80F04009A042DDD042E000BF79
:1029B00090693840C01BB0FA80F04009A04239D17C
:1029C000701C1FD0D6B300BFFEF718F9A0EB0800AB
:1029D000B04235D8286880693840C01BB0FA80F012
:1029E0004009A042F0D00020BDE8F0819069384055
:1029F000C01BB0FA80F04009A0424FF0000018BFA1
:102A0000BDE8F08190693840C01BB0FA80F0400901
:102A1000A0420FD190693840C01BB0FA80F0400945
:102A2000A04207D190693840C01BB0FA80F040093D
:102A3000A042DBD00020BDE8F08100BFFEF7DEF849
:102A400000202021286385F83D1085F83E00296C80
:102A500041F02001296485F83C000120BDE8F081A7
:102A6000F0B581B0044600681D4643698FB203EAA1
:102A70000701B94202D1002001B0F0BD41691646FC
:102A8000013201F480610FD059BB9EB3FEF7B6F856
:102A9000401BB04230D8206841693940B942EAD081
:102AA00041694905F2D51CE0D9B941693940B942BB
:102AB000E1D04169490514D441693940B942DAD0BD
:102AC000416949050DD441693940B942D3D04169C2
:102AD000490506D441693940B942CCD0416949051C
:102AE000E3D5016841F4007101606FF480614161D8
:102AF000042002E0FEF782F820200021202221633A
:102B000084F83D2084F83E10226C1043206484F841
:102B10003C10012001B0F0BDFEE70000FEE7000020
:102B200070470000B0B582B040F27805C2F20005EF
:102B30002946FDF7A1FD00F0DBF96879EA782B79E9
:102B400095F806C0EC1D43F2DF410090C0F600018D
:102B50002046CDF804C0FDF73BFB0020002100F02B
:102B60007DFA204600F0A8FA95F800C06B78AA78A4
:102B700043F2F541C0F600012046CDF800C0FDF754
:102B800027FB0120002100F069FA204602B0BDE8D1
:102B9000B04000F091BA0000B0B582B040F27805C4
:102BA000C2F200052946FDF767FD00F0A1F968793A
:102BB000EA782B7995F806C0EC1D43F2DF410090CE
:102BC000C0F600012046CDF804C0FDF701FB00204F
:102BD000002100F043FA204600F06EFA95F800C09C
:102BE0006B78AA7843F2F541C0F600012046CDF893
:102BF00000C0FDF7EDFA0120002100F02FFA204679
:102C000002B0BDE8B04000F057BA000070470000C5
:102C1000F0B585B04FF0CD0E00FB0EF6F60A06EBD0
:102C20008607A0EB470040EA06108DF80D0001FB77
:102C30000EF0C00A00EB8006A1EB460141EA00104D
:102C40008DF80E0002FB0EF0C00A00EB8001A2EB33
:102C5000410141EA00108DF80F0003FB0EF0C00A9D
:102C600000EB8001DDE90A54A3EB410141EA0010C9
:102C70008DF8100005FB0EF0C00A00EB8001A5EBFB
:102C8000410141EA00108DF8110004FB0EF0C00A6A
:102C900000EB8001DDF830C0A4EB410141EA0010F7
:102CA0008DF812000CFB0EF0C00A00EB8001ACEBBB
:102CB000410141EA00108DF8130007200DF10D01CC
:102CC000CDE9001040F2E0404FF47A77C2F2000004
:102CD000D021002201230297FEF7AAFC05B0F0BD27
:102CE00040F25850C2F20000016800291CBF0139AF
:102CF0000160FEF7BDBD0000704700002DE9F04FF8
:102D00008BB040F2900AC2F2000A0AF107000A9062
:102D10000AF1060009900AF1050040F60004089047
:102D20000AF10100C4F2010440F2585540F20008D3
:102D300007900AF10200C2F20005C2F2000804F591
:102D4000806B06900AF10300059000BF2046022127
:102D5000FDF74EFFC0B320460421FDF749FF0028D0
:102D60004DD100BF0520FDF71DFD20460421FDF7D4
:102D70003FFF0028F6D0DAF80800D8F8041088429F
:102D800044F62061296040F0A58000F0B1F846F6D5
:102D90004E705746C6F6206047F8130F0020387370
:102DA00046F66140C6F27550B86047F26570C7F2EA
:102DB000206078600020002100F050F9384600F0D3
:102DC0007BF92868F0B98DE00520FDF7EBFC204683
:102DD0000221FDF70DFF0028F6D0DAF808004FF6C3
:102DE0000041C0F60001884244F62061296008BF16
:102DF000D8F804000838CAF80800FFF7CDFE2868A4
:102E000000286FD058460121FDF7F2FE00289DD121
:102E1000D8F80000002899D10120C8F800000898CF
:102E2000DDE90521009009980A9F019007980AF1B1
:102E300004030297FDF74CFC9AF801009AF805602C
:102E40009AF804108AF810608DE8430040F2F80602
:102E50009AF802309AF80320D1468AF80F10AC464F
:102E60009AF806509AF80770C2F2000643F204512D
:102E700009F80C0F3046C0F600018AF80D308AF8C8
:102E80000E208AF811508AF812700395654604974F
:102E9000FDF79EF90AF1240031464FF47A724FF49F
:102EA0007A73FFF743F9D8F804004946FDF7EEFBC3
:102EB0009AF80000D8F8041001308AF8000001F1F7
:102EC0000800C8F80400CAF808004FF47A70FDF74B
:102ED00069FC3BE70830CAF80800FFF723FE2868C2
:102EE00000288FD10BB0BDE8F08F0000FEE7000096
:102EF0002DE9F04184B048F68C0040F2E044C0F681
:102F00000C00C2F2000402904FF0640802AA2046AE
:102F10004E210423CDF80080FDF732FF42F62D1636
:102F20004627C0F60D1603AD20464E212A4604233F
:102F30000396CDF80080FDF723FF013FF4D104B0E4
:102F4000BDE8F08170B582B03220FDF72BFC40F275
:102F5000E04443F63C06C2F20004C0F60C066425C9
:102F600001AA20464E21042301960095FDF708FF93
:102F70000520FDF717FC01AA20464E2104230196E7
:102F80000095FDF7FDFE0120FDF70CFC01AA20468F
:102F90004E21042301960095FDF7F2FE0A20FDF76D
:102FA00001FC42F62C00C0F60C00019001AA20465C
:102FB0004E2104230095FDF7E3FE0A20FDF7F2FB06
:102FC00042F62C00C8F68C00019001AA20464E2142
:102FD00004230095FDF7D4FE0120FDF7E3FB40F646
:102FE0000C00C8F68C00019001AA20464E21042353
:102FF0000095FDF7C5FE0120FDF7D4FB40F60C005F
:10300000C1F61C00019001AA20464E210423009520
:10301000FDF7B6FE0120FDF7C5FB0120FDF7C2FB61
:1030200040F60C00C6F66C00019001AA20464E2125
:1030300004230095FDF7A4FE0120FDF7B3FB40F645
:103040000C00CCF6CC00019001AA20464E210423AE
:103050000095FDF795FE02B070BD0000012805D077
:10306000002808BF41F0800102E000BF41F0C0012C
:1030700080B582B021F00F00090100F10C02083088
:103080008DF8050001F10C008DF8060001F1080033
:103090008DF8070040F2E0408DF804204FF0640CFA
:1030A000C2F2000001AA4E210423CDF800C0FDF7B2
:1030B00067FE02B080BD0000F0B583B0017821B397
:1030C00040F2E044461E6427C2F2000402AD00BF95
:1030D00021F00F00090100F10D0209308DF80900FF
:1030E00001F10D008DF80A0001F109008DF80820AA
:1030F0008DF80B0020464E212A4604230097FDF749
:103100003FFEB17801360029E2D103B0F0BD0000E6
:1031100092B040F21000C2F20000006844F6D351B1
:10312000C1F26201A0FB01014FF0FF3000EB9110F2
:103130000024B4EB106F0DD14EF21001CEF200015D
:1031400048604EF62350CEF20000F02202700720B5
:103150008C600860FEF79AFB0120CDE90D44CDE9B3
:103160000B4408904FF480310C904FF4E010CDE9FF
:1031700009140224119008A8CDE90F41FEF738FD8B
:1031800020B1EFF3108072B6FEE700BF0F20CDE94B
:10319000030400254FF48060CDE9060503A8022151
:1031A0000595FEF71DFC28B1EFF3108072B600BF45
:1031B000FEE700BF41F218000B95C4F2020001685F
:1031C00045F2004641F0200101600168C4F20006AA
:1031D00001F0200103910399016808AC41F004015A
:1031E00001600168012701F004010391039901685E
:1031F00041F0080101600068214600F008000390DA
:1032000003980E20CDE9080506F534400A97FDF72E
:10321000E1FB0020C1F21100099002200A9006F59E
:10322000384021460897FDF7D5FB062001210022F2
:10323000FEF79AFB0620FEF783FB40F2E04048F2DF
:10324000A061C2F20000C0F201014FF48042C0E967
:103250000061C0E90255C0E90425C0E906550562D0
:10326000FDF7D2FC20B1EFF3108072B6FEE700BF8D
:1032700040F2B40006F56441C2F2000000230C27BE
:103280004FF4165280E80E00C0E90333C0E905731D
:10329000C361FEF79DFE28B1EFF3108072B600BF48
:1032A000FEE700BF4FF60040C0F60000FDF7D0F982
:1032B000FFF748FE05201B211627CDE9001000204E
:1032C00014210B2206230297FFF7A2FC00F002F85C
:1032D000FCE700002DE9F04F89B040F29004C2F203
:1032E0000004A01D611D04F1010804F1020904F1AC
:1032F000030A40F60006E71DCDE90610CDE90010EF
:10330000231D404649465246C4F2010605930897DC
:103310000297FDF7DDF9A07922796379E77904F165
:10332000130543F2DF410090C0F6000128460197E3
:10333000FCF74EFF00200021FFF790FE2846FFF724
:10334000BBFE60782778A378E27843F22B51009097
:10335000C0F6000128460197FCF73AFF0120002142
:10336000FFF77CFE2846FFF7A7FE30460821FDF751
:103370003FFC88BB0520FDF715FA30460821FDF714
:1033800037FC0028F6D040F25850C2F2000042F25A
:1033900010710160FFF7ACFD46F25710C7F26940AB
:1033A000254645F8130F42F62E60C0F22E00C5F8F0
:1033B0000B0046F67470C2F66E60A86046F22020DC
:1033C000C7F27540686000200021FFF747FE2846DD
:1033D000FFF772FEFFF792FC06F580600121FDF712
:1033E00007FC002854D140F2000BC2F2000BDBF8BE
:1033F000000000284CD10120CBF800000698494677
:103400000090079852460190059B089F40460297FE
:10341000FDF75EF96078A378E27821796779A5797C
:10342000E679A04608F80C0F6373A273E173277462
:103430006574A674039540F2F8058DE88300C2F226
:10344000000543F20451C0F6000128460496FCF73B
:10345000BFFE04F1240029464FF47A724FF47A73C8
:10346000FEF764FEDBF804004146FDF70FF9207813
:10347000DBF80410013008312070CBF804104FF451
:103480007A70A16009B0BDE8F04FFDF78BB900BFBD
:1034900009B0BDE8F08F30380A2801D2012070470A
:1034A0000020704704000008000000000000000237
:1034B00000010000100102000000000000000001F7
:1034C00002030406070809000000000102030402C9
:1034D000030405060708090A0B0C0D0E0F10102532
:1034E0003032642D253032642D253032642D323057
:1034F0002530326400253032643A253032643A2572
:1035000030326400253032643A253032643A253056
:10351000326420253032642F253032642F2530323A
:10352000642F323025303264200A00253032643A6C
:10353000253032643A253032642053756D3D253094
:103540003264000068350008000000201800000008
:10355000280100088035000818000020480B0000F2
:1035600044010008000000000100000000FC000809
:1035700001000000100000000024F4000000000022
:04000005080000ED02
:00000001FF
